:020000040000FA
:0600000084EF18F012006D
:020006001200E6
:060008007AEF00F0120087
:02000E00D0A779
:0400100000000000EC
:0600180028EF00F01200C9
:02001E000400DC
:1000200010000000E5000000040000000E000000C9
:10003000FE0100000200000078310000D000000046
:10004000150000000B2F0000E90000000100000077
:10005000DACFE4FFE2CFDAFFE9CFE4FFEACFE4FF53
:10006000F6CFE4FFF7CFE4FFF5CFE4FFF3CFE4FFF3
:10007000F4CFE4FFFACFE4FF00EE00F0140EE80442
:1000800003E3EECFE4FFFBD700EE14F00F0EE8041D
:1000900003E3EECFE4FFFBD7E652F0A003D0AFECD2
:1000A0000BF004D0A45002E088EC0EF0E55200EE14
:1000B00022F00F0EE80403E3E5CFEDFFFBD700EEDF
:1000C00013F0140EE80403E3E5CFEDFFFBD7E5CF13
:1000D000FAFFE5CFF4FFE5CFF3FFE5CFF5FFE5CF7E
:1000E000F7FFE5CFF6FFE5CFEAFFE5CFE9FFE5CF84
:1000F000DAFF1100DACFE4FFE9CFE4FFEACFE4FF53
:10010000F6CFE4FFF7CFE4FFF5CFE4FFF3CFE4FF52
:10011000F4CFE4FFE6529EA291D19E920001E10746
:10012000000EE25BE151E21136E1F40EE16F010EE7
:10013000E26F0101032B0F0E035D01E19385035173
:100140003B0829E2036B042B938304513B0823E211
:10015000046B052B055117081EE2056B072B0805DC
:10016000EA6AD00FE96E000EEA22EFCF92F1020E9A
:10017000085D04E10951030B01E1922B9251D880F3
:10018000075509E2010E076F082B08510C0803E21E
:10019000010E086F092B010193AF50D11F0E83167A
:1001A0000151200DF35083120151070DF3CFE9FFE8
:1001B000F4CFEAFF0A0EE926010EEA22EECF23F081
:1001C000EFCF24F00151070DF3CFE9FFF4CFEAFFA1
:1001D0000A0EE926010EEA22020EE926000EEA22A4
:1001E000EECF25F0EFCF26F02550231805E126505D
:1001F000241802E1939F22D10151070DF3CFE9FFAB
:10020000F4CFEAFF0A0EE926010EEA22020EE926E1
:10021000000EEA22EECF25F0EFCF26F00151070DB8
:10022000F3CFE9FFF4CFEAFF0A0EE926010EEA2236
:10023000EE50255C236EEE502658246EE8346AE2B8
:1002400023500008000E245465E20151070DF3CF3E
:10025000E9FFF4CFEAFF0A0EE926010EEA22060EB4
:10026000E926000EEA22EF2A0151070DF3CFE9FF3C
:10027000F4CFEAFF0A0EE926010EEA22060EE9266D
:10028000000EEA22EFCF23F0070EE76E2318E8AE48
:1002900002D0233403D0E750D88023540FE2015119
:1002A000070DF3CFE9FFF4CFEAFF0A0EE926010EAE
:1002B000EA22060EE926000EEA22EF6A0151070D36
:1002C000F3CFE9FFF4CFEAFF0A0EE926010EEA2296
:1002D000060EE926000EEA22EFCFF6FFF76AF6BE19
:1002E000F768C00EF626300EF7220800F5CF23F08F
:1002F0000F0E8A1423108A6E0151070DF3CFE9FF08
:10030000F4CFEAFF0A0EE926010EEA22EE2A000ED9
:10031000ED2294D084B636D0939F0151070DF3CFD0
:10032000E9FFF4CFEAFF0A0EE926010EEA22EECF3A
:1003300025F0EFCF26F00151070DF3CFE9FFF4CF01
:10034000EAFF0A0EE926010EEA22020EE926000E55
:10035000EA22EE50255C236EEE502658246E0151A1
:10036000070DF3CFE9FFF4CFEAFF0A0EE926010EED
:10037000EA22040EE926000EEA2223C0EEFF24C082
:10038000EDFF5CD00151070DF3CFE9FFF4CFEAFF99
:100390000A0EE926010EEA22060EE926000EEA22DE
:1003A000EF060151070DF3CFE9FFF4CFEAFF0A0E84
:1003B000E926010EEA22060EE926000EEA22EFCF18
:1003C00023F0233410E30151070DF3CFE9FFF4CFFD
:1003D000EAFF0A0EE926010EEA22060EE926000EC1
:1003E000EA22070EEF6E0151070DF3CFE9FFF4CFBC
:1003F000EAFF0A0EE926010EEA22060EE926000EA1
:10040000EA22EFCFF6FFF76AF6BEF768C00EF626CF
:10041000300EF7220800F5CF23F00F0E8A142310B8
:100420008A6E0151070DF3CFE9FFF4CFEAFF0A0E00
:10043000E926010EEA22EE06000EED5AE552E5CF5E
:10044000F4FFE5CFF3FFE5CFF5FFE5CFF7FFE5CF0D
:10045000F6FFE5CFEAFFE5CFE9FFE5CFDAFF1100D0
:10046000D9CFE6FFE1CFD9FFE6529268806A0B0E42
:10047000936E816A990E946E040E826E956AF00EE8
:10048000836E070E966E846AB46EC26AC16E3D0EAC
:10049000C06E839A839C839E838683980101010E9C
:1004A000086F076F056B096BDF6ADFCF14F0090E69
:1004B000E76E1418E8AE02D0E73402D0E750145CBF
:1004C0003BE2DFCFE9FFEA6AE9BEEA68D890E936A5
:1004D000EA36480EE926010EEA22040EEE6E050EFB
:1004E000ED6EDFCFE9FFEA6AE9BEEA68D890E93647
:1004F000EA365C0EE926010EEA22020EEE6E010ECD
:10050000ED6EDFCFE9FFEA6AE9BEEA68D890E93626
:10051000EA36700EE926010EEA22EE6AED6ADFCFB6
:10052000E9FFEA6AE9BEEA68840EE926010EEA22DA
:100530000A0EEF6EDF2AB9D7DF6ADFCF14F0060E9E
:10054000E76E1418E8AE02D0E73402D0E750145C2E
:100550005DE2DFCFE9FFEA6AE9BEEA68070EEA0278
:10056000F3CFEAFFE902F3CFE9FFF450EA260A0EDF
:10057000E926010EEA22EE6AED6ADFCFE9FFEA6AB8
:10058000E9BEEA68070EEA02F3CFEAFFE902F3CF19
:10059000E9FFF450EA260A0EE926010EEA22020ECD
:1005A000E926000EEA22EE6AED6ADFCFE9FFEA6A89
:1005B000E9BEEA68070EEA02F3CFEAFFE902F3CFE9
:1005C000E9FFF450EA260A0EE926010EEA22060E99
:1005D000E926000EEA22EF6ADFCFE9FFEA6AE9BE08
:1005E000EA68070EEA02F3CFEAFFE902F3CFE9FF78
:1005F000F450EA260A0EE926010EEA22040EE92644
:10060000000EEA22EE6AED6ADF2A97D70101939F76
:100610009D6AA06AA36AF90ECB6E8E0EE66E2BEC75
:1006200018F0E552D08E9F829D82F19AF09CF08660
:10063000A56AF28EF28CE552E552E7CFD9FF12009F
:100640000FDF37D920EC16F0ACEC0AF0050EE66EA1
:10065000AA0EE66E040EE66E3CEC0EF0E552E55294
:10066000E552FC0EE66E2E0EE66E2BEC16F0E55211
:10067000E5529DEC10F0000926E00F0EE126A3ECF8
:1006800010F0EECFA4F1EECFA5F1EECFA6F1EECFB4
:10069000A7F1EECFA8F1EECFA9F1EECFAAF1EECF00
:1006A000ABF1EECFACF1EECFADF1EECFAEF1EECFE0
:1006B000AFF1EECFB0F1EECFB1F1EECFB2F1146EFB
:1006C0000F0EE15E1450F8D80101F2510EE0F00E69
:1006D0000101C215A00802E162EC07F0F00E010171
:1006E000C215300802E19EEC07F0010193A302D08D
:1006F0000AEC08F0010193A502D0AFEC08F09EAA25
:10070000E3D787D9E1D7D9CFE6FFE1CFD9FF010100
:10071000939FFE0EDBCF01F11F0E83160151200DBA
:10072000F3508312E80EE66E2E0EE66E2BEC16F0FA
:10073000E552E552340EE66E010EE66E0101012926
:10074000E66E94EC12F0E552E552E552340EE66E98
:10075000010EE66E48EC16F0E552E552050EE66E27
:10076000E66A99EC15F0E552E55284B63BD0DA0E14
:10077000E66E2E0EE66E2BEC16F0E552E552010108
:100780000151070DF3CFE9FFF4CFEAFF0A0EE92686
:10079000010EEA22EE6AED6A0151070DF3CFE9FF7F
:1007A000F4CFEAFF0A0EE926010EEA22020EE9263C
:1007B000000EEA22EE6A140EED6E938F9351800BB9
:1007C00003E08450080BFAE0939F010EE66EE66AA0
:1007D00099EC15F0E552E55284B604D0C00EE66EF1
:1007E0002E0E5ED001010151070DF3CFE9FFF4CFCA
:1007F000EAFF0A0EE926010EEA22EE6A500EED6EBD
:100800000151070DF3CFE9FFF4CFEAFF0A0EE92605
:10081000010EEA22020EE926000EEA22EE6AED6AD5
:10082000938F93BFFED784B638D00151070DF3CF15
:10083000E9FFF4CFEAFF0A0EE926010EEA22EE6A8A
:10084000ED6AB30EE66E2E0EE66E2BEC16F0E55258
:10085000E552340EE66E010EE66E01010151070D00
:10086000F3CFE9FFF4CFEAFF0A0EE926010EEA22F0
:10087000040EE926000EEA22EECFE6FFEFCFE6FFF8
:1008800015EC13F0E552E552E552E552340EE66EF2
:10089000010EE66E48EC16F006D09A0EE66E2E0EAD
:1008A000E66E2BEC16F0E552E552E552E7CFD9FFA4
:1008B00012008B928B901200D9CFE6FFE1CFD9FFC7
:1008C000020EE1260101110EB36F010EB46FB56B7C
:1008D000B66BC191BF6BC183C06BB3C1E6FFE66E5F
:1008E000B5C1E6FFB6C1E6FFB7C1E6FFB8C1E6FF96
:1008F000B9C1E6FFBAC1E6FFBBC1E6FFBCC1E6FF76
:10090000BDC1E6FFBEC1E6FFBFC1E6FFC0C1E6FF55
:10091000C1C1E6FF7DEC0FF0146E0F0EE15E1450C6
:10092000DE6ADD6ADECF14F0DDCF15F0166AD890EE
:100930001650000A06E6FF0E145CFF0E1558000E56
:10094000165809E29DEC10F0000905E1DF2A010EBE
:10095000E9E3DB2AE7D79DEC10F0000950E00F0E29
:10096000E126A3EC10F0EECFA4F1EECFA5F1EECF8F
:10097000A6F1EECFA7F1EECFA8F1EECFA9F1EECF21
:10098000AAF1EECFABF1EECFACF1EECFADF1EECF01
:10099000AEF1EECFAFF1EECFB0F1EECFB1F1EECFE1
:1009A000B2F1146E0F0EE15E1450A9C103F1AAC199
:1009B00004F1ABC105F1ADC107F1AEC108F1AFC1A2
:1009C00009F1900EE66E2E0EE66E2BEC16F0E55257
:1009D000E552340EE66E010EE66EDECFE6FFDDCFA9
:1009E000E6FF15EC13F0E552E552E552E552340E00
:1009F000E66E010EE66E48EC16F0E552E552020E88
:100A0000E15C02E2E16AE552E16EE552E7CFD9FF2F
:100A10001200AECF8EF1AE500D0A49E0210A34E04B
:100A20005B0A0EE001018F51EA6A990FE96E010E2F
:100A3000EA228EC1EFFF8F2B8F5107086BE251D056
:100A40000101939F010E016FE850070DF3CFE9FFFD
:100A5000F4CFEAFF0A0EE926010EEA22020EE92689
:100A6000000EEA22EE6AED6A0151070DF3CFE9FFAD
:100A7000F4CFEAFF0A0EE926010EEA22100EEE6E0E
:100A8000270EED6E938F12004BD8080EE66EE66AC5
:100A9000E66A990EE66E010EE66E46EC18F0146EEC
:100AA000050EE15E145001018F6BA32B33D038D8B3
:100AB000080EE66EE66AE66A990EE66E010EE66ECE
:100AC00046EC18F0146E050EE15E145001018F6BB8
:100AD000A36BD10EE66E300EE66E2BEC16F0E552EF
:100AE0001DD0D10EE66E300EE66E2BEC16F0E55200
:100AF000E552080EE66EE66AE66A990EE66E010EAB
:100B0000E66E46EC18F0146E050EE15E145001011D
:100B10008F6B12008EC1E6FF64EC16F0E5521200F6
:100B20000101A35101E0FBD09951710A0DE00B0ABC
:100B300008E01D0A04E0995101E1F0D0E7D0670E0A
:100B400001D07A0E906F12008C0EE66E2E0EE66EBD
:100B50002BEC16F0E552E5520101026B060E025D28
:100B600001E3DCD0820EE66E2E0EE66E2BEC16F064
:100B7000E552E552340EE66E010EE66E01010229E1
:100B8000E66E94EC12F0E552E552E552340EE66E54
:100B9000010EE66E48EC16F0E552E552730EE66E75
:100BA0002E0EE66E2BEC16F0E552E552340EE66E94
:100BB000010EE66E01010251070DF3CFE9FFF4CFFC
:100BC000EAFF0A0EE926010EEA22EECFE6FFEFCF9A
:100BD000E6FF15EC13F0E552E552E552E552340E0E
:100BE000E66E010EE66E48EC16F0E552E552640E34
:100BF000E66E2E0EE66E2BEC16F0E552E552340E44
:100C0000E66E010EE66E01010251070DF3CFE9FF1A
:100C1000F4CFEAFF0A0EE926010EEA22020EE926C7
:100C2000000EEA22EECFE6FFEFCFE6FF15EC13F061
:100C3000E552E552E552E552340EE66E010EE66EDF
:100C400048EC16F0E552E552550EE66E2E0EE66EB5
:100C50002BEC16F0E552E552340EE66E010EE66E10
:100C600001010251070DF3CFE9FFF4CFEAFF0A0EAD
:100C7000E926010EEA22040EE926000EEA22EECF52
:100C8000E6FFEFCFE6FF15EC13F0E552E552E55233
:100C9000E552340EE66E010EE66E48EC16F0E552B3
:100CA000E5524A0EE66E2E0EE66E2BEC16F0E5527D
:100CB000E552340EE66E010EE66E01010251070D9B
:100CC000F3CFE9FFF4CFEAFF0A0EE926010EEA228C
:100CD000060EE926000EEA22EFCF14F0156A14BEC4
:100CE000156814C0E6FF15C0E6FF15EC13F0E552D9
:100CF000E552E552E552340EE66E010EE66E48EC22
:100D000016F0E552E5520101022B28D7DC0EE66E03
:100D1000300EE66E2BEC16F0E552E5521200A305FC
:100D200066E190517A0A1DE01D0A01E01200990E59
:100D3000E66E010EE66EC6EC11F0E552E5520101D9
:100D4000026FE850060802E3000E01D0010E146E97
:100D5000010E025D02E3000E01D0010E141046E008
:100D600022D0990EE66E010EE66EC6EC11F0E55249
:100D7000E5520101026FE8500CE1026B060E025DC4
:100D800001E39FD002C1E6FFBEDCE5520101022B68
:100D9000F5D70251000807E2070E025D04E20205E2
:100DA000E66EB1DC21D0080EE66EE66AE66A990EC0
:100DB000E66E010EE66E46EC18F0146E050EE15E6E
:100DC000145001018F6BA36B906B370EE66E2E0EE5
:100DD000E66E2BEC16F0E552E552D10EE66E300EC3
:100DE000E66E2BEC16F0E552E55212001200020EF0
:100DF000A35D67E19051670A01E01200990EE66E6B
:100E0000010EE66E1FEC12F0E552E552F3CF95F1BC
:100E1000F4CF96F10101000ED880F354500EF45433
:100E200002E3000E01D0010E146E000E955D000E5F
:100E3000965902E3000E01D0010E141023E0080EB3
:100E4000E66EE66AE66A990EE66E010EE66E46EC1E
:100E500018F0146E050EE15E145001018F6BA36B48
:100E6000906B370EE66E2E0EE66E2BEC16F0E5520A
:100E7000E552D10EE66E300EE66E2BEC16F0E55222
:100E8000E552120093BF1DD00205016FE850070D17
:100E9000F3CFE9FFF4CFEAFF0A0EE926010EEA22BA
:100EA000020EE926000EEA2295C1EEFF96C1EDFF83
:100EB000938F310EE66E2E0EE66E2BEC16F0E55299
:100EC000E55212000F0E0101C2150101006F500E14
:100ED00000110101D66F03C1D7F104C1D8F105C1DA
:100EE000D9F1010EDA6F07C1DBF108C1DCF109C1EC
:100EF000DDF1080EE66E27EC0DF0E552240EE66EED
:100F00002E0EE66E2BEC16F0E552E552340EE66E30
:100F1000010EE66E00C1E6FF94EC12F0E552E552D8
:100F2000E552340EE66E010EE66E48EC16F0E55220
:100F3000E5520101EC6B0101F26B1200060E01019A
:100F4000EC5D48E10F0E0101C2150101006F090EB1
:100F5000005D40E20051E96EEA6AD890E936EA366F
:100F6000480EE926010EEA22010EE926000EEA22C9
:100F7000C3C1EFFF0051E96EEA6AD890E936EA365C
:100F8000480EE926010EEA22C4C1EFFF0051E96EC6
:100F9000EA6AD890E936EA365C0EE926010EEA22C2
:100FA000010EE926000EEA22C5C1EFFF0051E96EED
:100FB000EA6AD890E936EA365C0EE926010EEA22A2
:100FC000C6C1EFFF0051EA6A840FE96E010EEA2202
:100FD000C7C1EFFF0101EC6B0101F26B1D0EE66E64
:100FE0002E0EE66E2BEC16F0E552E552340EE66E50
:100FF000010EE66E00C1E6FF94EC12F0E552E552F8
:10100000E552340EE66E010EE66E48EC16F0E5523F
:10101000E552120001019393340EE66E010EE66E66
:1010200009C1E6FF94EC12F0E552E552E552170EC5
:10103000E66E2E0EE66E2BEC16F0E552E552340EFF
:10104000E66E010EE66E48EC16F0E552E552340EFF
:10105000E66E010EE66E08C1E6FF94EC12F0E55272
:10106000E552E552150EE66E2E0EE66E2BEC16F0EE
:10107000E552E552340EE66E010EE66E48EC16F0CF
:10108000E552E552340EE66E010EE66E07C1E6FF4C
:1010900094EC12F0E552E552E552150EE66E2E0E76
:1010A000E66E2BEC16F0E552E552340EE66E010EBC
:1010B000E66E48EC16F0E552E552340EE66E010E8F
:1010C000E66E05C1E6FF94EC12F0E552E552E552FA
:1010D000120EE66E2E0EE66E2BEC16F0E552E55281
:1010E000340EE66E010EE66E48EC16F0E552E5525F
:1010F000340EE66E010EE66E04C1E6FF94EC12F0CB
:10110000E552E552E552100EE66E2E0EE66E2BEC21
:1011100016F0E552E552340EE66E010EE66E48EC2E
:1011200016F0E552E552340EE66E010EE66E03C18E
:10113000E6FF94EC12F0E552E552E552100EE66E31
:101140002E0EE66E2BEC16F0E552E552340EE66EEE
:10115000010EE66E48EC16F0E552E5521200D9CFCA
:10116000E6FFE1CFD9FFE652010193950A0EB36F76
:10117000B46BB56BB66BC191C193C06B030EBF6FFF
:10118000DF6A090EDF5C65E28B908B92E66ADF50C6
:10119000F76AC80FF66E300EF7220800F550E66EBB
:1011A000CBEC14F0E552E552F3CF14F0F4CF15F088
:1011B000EA6ADF34FE0BEA36E96E700EE926010EAC
:1011C000EA22F3CFEEFF15C0EDFF400EDF10010164
:1011D000B76FEA6ADF34FE0BEA36E96E700EE92675
:1011E000010EEA22EFCFB8F1EA6ADF34FE0BEA36ED
:1011F000E96E700EE926010EEA22010EE926000EC4
:10120000EA22EFCFB9F1B3C1E6FFB4C1E6FFB5C141
:10121000E6FFB6C1E6FFB7C1E6FFB8C1E6FFB9C158
:10122000E6FFBAC1E6FFBBC1E6FFBCC1E6FFBDC138
:10123000E6FFBEC1E6FFBFC1E6FFC0C1E6FFC1C118
:10124000E6FF7DEC0FF0146E0F0EE15E1450DF2A06
:1012500098D701010A0EB36FB46BB56BB66B060E6F
:10126000BF6F640EE66EE66AE66AE66A0EEC15F09B
:10127000E552E552E552E552DF6A090EDF5C71E2A4
:10128000800EDF100101B76FEA6ADF34FE0BEA3629
:10129000E96E480EE926010EEA22EFCFB8F1EA6ABC
:1012A000DF34FE0BEA36E96E480EE926010EEA222B
:1012B000010EE926000EEA22EFCFB9F1EA6ADF3427
:1012C000FE0BEA36E96E5C0EE926010EEA22EFCF4C
:1012D000BAF1EA6ADF34FE0BEA36E96E5C0EE92603
:1012E000010EEA22010EE926000EEA22EFCFBBF141
:1012F000DF50EA6A840FE96E010EEA22EFCFBCF1FB
:10130000B3C1E6FFB4C1E6FFB5C1E6FFB6C1E6FF73
:10131000B7C1E6FFB8C1E6FFB9C1E6FFBAC1E6FF53
:10132000BBC1E6FFBCC1E6FFBDC1E6FFBEC1E6FF33
:10133000BFC1E6FFC0C1E6FFC1C1E6FF7DEC0FF013
:10134000146E0F0EE15E1450960EE66EE66AE66AC3
:10135000E66A0EEC15F0E552E552E552E552DF2A59
:0E1360008CD7E552E552E7CFD9FF12001200FC
:02136E00D9CFD5
:10137000E6FFE1CFD9FF030EE126DE6ADD6AFC0E4F
:10138000DB06DBCF14F014343EE2FD0EDBCFE9FFC9
:10139000DB2AFE0EDBCFEAFF01E3DB2AEFCF16F0FC
:1013A00016C017F0166ADE501618146EDD501718A6
:1013B00014C0DEFFDD6E020EDB6A080EF36E020E55
:1013C000DBCFF4FFF350F45CDAE2010EDB50800B6C
:1013D0000CE0DECF14F0DDCF15F0D89014361536C2
:1013E000210E141A100E151A07D0DECF14F0DDCF1F
:1013F00015F0D8901436153614C0DEFF15C0DDFF89
:10140000020EDB2ADAD7DECF14F0DDCF15F014C0E0
:10141000F3FF15C0F4FF030EE15C02E2E16AE5525E
:10142000E16EE552E7CFD9FF1200D9CFE6FFE1CF59
:10143000D9FFE6529E96C950DF6EC69EFE0EDB5067
:10144000C96EC6BEFAD79EA6FED7E552E552E7CFD3
:10145000D9FF1200E66AE9DFE552C9501200D9CF80
:10146000E6FFE1CFD9FF020EE126829A8296DF6A7B
:10147000080EDF5C12E2010EDB50020D010EF3CF0D
:10148000DBFF82B8DB808286030EE66EA0EC18F0EC
:10149000E5528296DF28DF6EEBD7010EDB50146E2B
:1014A000020EE15C02E2E16AE552E16E1450E5529F
:1014B000E7CFD9FF1200D9CFE6FFE1CFD9FFE6523F
:1014C000829A8296DF6A080EDF5C20E2FD0EDB5016
:1014D000800B02E0828A01D0829AFD0EDBCF14F0ED
:1014E000FE0EDBCF15F0D89014361536FD0E14C065
:1014F000DBFFFE0E15C0DBFF8286030EE66EA0EC5E
:1015000018F0E5528296DF28DF6EDDD7829AE55229
:10151000E552E7CFD9FF1200D9CFE6FFE1CFD9FFDF
:101520008392FE0EDBCF15F015C014F0156A14C0BF
:10153000E6FF15C0E6FFBFDFE552E552FD0EDBCF4B
:10154000E6FFFE0EDBCFE6FFB6DFE552E552838213
:10155000E552E7CFD9FF1200D9CFE6FFE1CFD9FF9F
:10156000020EE126838483829488949A9496829AC8
:10157000829682880101EC6BEB6BF26B070EDE6EDC
:10158000DD6A5A0E086E096ADECF0DF0DDCF0EF06F
:101590000DEC18F006C0FEF107C0FFF1C60E010108
:1015A000FE27A20EFF23770EE66ECC0EE66EB4DFAA
:1015B000E552E5525C0EF66E310EF76E0900F5CF7E
:1015C000E6FF0800F5CFE6FFA7DFE552E5525C0E27
:1015D000F66E310EF76E0900F5CF14F00800F5CF66
:1015E00015F0020E1412000E151214C0E6FF15C0FD
:1015F000E6FF92DFE552E552660EF66E310EF76EAB
:101600000900F5CFE6FF0800F5CFE6FF85DFE552DC
:10161000E552FEC1E6FFFFC1E6FF7EDFE552E5527F
:10162000560EF66E310EF76E0900F5CFE6FF080094
:10163000F5CFE6FF71DFE552E552580EF66E310E3A
:10164000F76E0900F5CFE6FF0800F5CFE6FF64DF8F
:10165000E552E552640EF66E310EF76E0900F5CFD5
:10166000E6FF0800F5CFE6FF57DFE552E552560EDC
:10167000F66E310EF76E0900F5CF14F00800F5CFC5
:1016800015F0200E1412000E151214C0E6FF15C03E
:10169000E6FF42DFE552E552050EE66EE66A99EC9A
:1016A00015F0E552E552560EF66E310EF76E090052
:1016B000F5CF14F00800F5CF15F0800E1412000ECF
:1016C000151214C0E6FF15C0E6FF26DFE552E5520D
:1016D000660EF66E310EF76E0900F5CF14F00800B5
:1016E000F5CF15F0400E1412000E151214C0E6FFCF
:1016F00015C0E6FF11DFE552E5525C0EF66E310EC5
:10170000F76E0900F5CFE6FF0800F5CFE6FF04DF2E
:10171000E552E5525C0EF66E310EF76E0900F5CF1C
:1017200014F00800F5CF15F0020E1412000E151279
:1017300014C0E6FF15C0E6FFEFDEE552E552000EED
:10174000E66EE66AE9DEE552E552020EE15C02E28F
:10175000E16AE552E16EE552E7CFD9FF1200D9CF39
:10176000E6FFE1CFD9FF080EE126F096F0908392D4
:1017700000009488828882A85DD1838283946FDE82
:10178000E76E010EE7CFDBFF140EF36E010EDBCF29
:10179000F4FFF350F45C06E2010EDB5003E00101BC
:1017A000F25168E08384560EF66E310EF76E090032
:1017B000F5CFE6FF0800F5CFE6FFAEDEE552E552D5
:1017C0005C0EF66E310EF76E0900F5CFE6FF0800ED
:1017D000F5CFE6FFA1DEE552E552660EF66E310E5C
:1017E000F76E0900F5CFE6FF0800F5CFE6FF94DEBF
:1017F000E552E552660EF66E310EF76E0900F5CF32
:1018000014F00800F5CF15F0400E1412000E15125A
:1018100014C0E6FF15C0E6FF7FDEE552E552560E26
:10182000F66E310EF76E0900F5CF14F00800F5CF13
:1018300015F0800E1412000E151214C0E6FF15C02C
:10184000E6FF6ADEE552E5525C0EF66E310EF76E8B
:101850000900F5CF14F00800F5CF15F0020E1412B0
:10186000000E151214C0E6FF15C0E6FF55DEE55266
:10187000E552E2D0010EDBCFECF18384DF6A020E89
:10188000DB6A030EDB6A020EDBCF14F0DB2A030EE9
:10189000DBCF15F001E3DB2A0001141C01E1151C6C
:1018A00002E180D7C5D081A0C3D08394020EDB6A49
:1018B000030EDB6AD4DDE66EDF50DF2AEA6AC20F70
:1018C000E96E010EEA22E552E750EF6E0101EC519C
:1018D000DF5C01E2ACD0DF50DF2AEA6AC20FE96EBA
:1018E000010EEA22EF6ADF50DF2AEA6AC20FE96ED0
:1018F000010EEA22EF6A83845C0EF66E310EF76EFB
:101900000900F5CFE6FF0800F5CFE6FF05DEE5525A
:10191000E552020E0101EC5F0101EC51EA6AC20FCF
:10192000E96E010EEA22EFCF16F016C017F0166A24
:101930000101EC29EA6AC20FE96E010EEA22EF50BA
:1019400000011624146E000E1720156E040E14C02C
:10195000DBFF050E15C0DBFFECC1E6FFC20EE66E35
:10196000010EE66E04DDE552E552E552060EF3CFB8
:10197000DBFF070EF4CFDBFF0101EC29EA6AC20F9F
:10198000E96E010EEA22EF50F36E060EDB50F35CB7
:1019900002E1000E01D0010E166E060EDBCF14F030
:1019A000070EDBCF15F015C014F0156A0101EC51DC
:1019B000EA6AC20FE96E010EEA22EF50145C02E1FE
:1019C000000E01D0010E161019E0DF6A0101EC6B68
:1019D0005C0EF66E310EF76E0900F5CF14F00800BC
:1019E000F5CF15F0020E1412000E151214C0E6FF0A
:1019F00015C0E6FF91DDE552E552D4D65C0EF66ED9
:101A0000310EF76E0900F5CF14F00800F5CF15F090
:101A1000020E1412000E151214C0E6FF15C0E6FFE8
:101A20007BDDE552E5520101010EF26F05D08384A2
:101A30002AD702D014DD8382F086080EE15C02E230
:101A4000E16AE552E16EE552E7CFD9FF1200D9CF46
:101A5000E6FFE1CFD9FF040EE126F096FE0EDB5043
:101A6000020F140805E2120EF36EFE0EF3CFDBFF39
:101A7000FE0EDBCFE6FFD60EE66E010EE66E77DCDD
:101A8000E552E552E552F3CFDEFFF4CFDDFFDECFC6
:101A900014F0DDCF15F015C014F0156AFE0EDBCF83
:101AA000F3FFDB2AF350EA6AD60FE96E010EEA2251
:101AB00014C0EFFFFE0EDBCFF3FFDB2AF350EA6A20
:101AC000D60FE96E010EEA22DFCFEFFF560EF66E5B
:101AD000310EF76E0900F5CFE6FF0800F5CFE6FFFF
:101AE0001BDDE552E552660EF66E310EF76E09000B
:101AF000F5CF14F00800F5CF15F0800E1412000E8B
:101B0000151214C0E6FF15C0E6FF06DDE552E552EA
:101B1000560EF66E310EF76E0900F5CF14F0080080
:101B2000F5CF15F0200E1412000E151214C0E6FFAA
:101B300015C0E6FFF1DCE552E552010EE66EE66AFD
:101B400099EC15F0E552E552020EDB6A030EDB6AF2
:101B50008392B80EE66EE66AAEDCE552E552AA0E56
:101B6000E66EE66AA8DCE552E552FE0EDB50020F97
:101B7000F36E020EDBCFF4FFF350F45C32E282A886
:101B8000F4D7020EDB501DE1030EF36EDBCFF4FF42
:101B9000E850F45C16E2030EDB50020A09E0030A87
:101BA00004E0010A0CE12D0E01D0D40EE66E03D044
:101BB000FE0EDBCFE6FFE66A7EDCE552E552030E61
:101BC0000ED0020EDB50EA6AD60FE96E010EEA2251
:101BD000EF50E66EE66A6FDCE552E552020EDB2A54
:101BE000C4D78382560EF66E310EF76E0900F5CF1C
:101BF00014F00800F5CF15F0800E1412000E151227
:101C000014C0E6FF15C0E6FF87DCE552E552660E1C
:101C1000F66E310EF76E0900F5CF14F00800F5CF1F
:101C200015F0400E1412000E151214C0E6FF15C078
:101C3000E6FF72DCE552E5525C0EF66E310EF76E91
:101C40000900F5CF14F00800F5CF15F0020E1412BC
:101C5000000E151214C0E6FF15C0E6FF5DDCE5526C
:101C6000E552F086040EE15C02E2E16AE552E16EC3
:081C7000E552E7CFD9FF120095
:081C7800D9CFE6FFE1CFD9FF4F
:101C800093949386A36AA46A3F0E6F1480096F6EC3
:101C9000E00E6E148008FCE1FE0EDB50706EFD0E4F
:101CA000DB50716EFC0EDB50726E040E606E0F0125
:101CB000506B016B006B056B046B096B086B0D6B54
:101CC0000C6B116B106B156B146B1B6B1A6B080E86
:101CD000196F186B1F6B1E6B1D6F1C6B200E736EC4
:101CE0001F0E6F146F6EE00E6E14FDE1030EA36EF7
:101CF000180EA46E0F01E00E426FB50E416F080E74
:101D0000456F406B4087000EE552E7CFD9FF1200C8
:101D1000D9CFE6FFE1CFD9FFE652A450A3145EE08D
:101D20006F50DF6EA450010B08E0A350010B05E0DB
:101D3000A490F00E6F140C090AD0A450020B0AE014
:101D4000A350020B07E0A492F00E6F140A096F6E05
:101D50004AD842D0A450040B0EE0A350040B0BE071
:101D6000F00E6F1408096F6E80D8000902E0A3948A
:101D700033D0A49431D0A450080B0EE0A350080B2C
:101D80000BE0F00E6F1406096F6E6FD8000902E0C9
:101D9000A39622D0A49620D0A450100B0EE0A350FE
:101DA000100B0BE0F00E6F1404096F6E5ED8000983
:101DB00002E0A39811D0A4980FD0A450200B05E006
:101DC000A350200B02E0A49A07D0A450400B04E0DB
:101DD000A350400B01E0A49CDF506F6EE552E5522A
:101DE000E7CFD9FF1200D9CFE6FFE1CFD9FFE65206
:101DF0000001E62B040EE76EE619E8AE02D0E734E8
:101E000002D0E750E65D01E3E66BDF6A0E0EDF5CB1
:101E100026E2DF50EA6A600FE96E0F0EEA22EF5009
:101E2000E66EE6C0E9FFEA6AE9BEEA680E0EEA027B
:101E3000F3CFEAFFE902F3CFE9FFF450EA26600EA0
:101E4000E926000EEA22DF500F01E924E96E000EB8
:101E5000EA20EA6EE552E750EF6EDF2AD7D7609EA0
:101E6000E552E552E7CFD9FF1200D9CFE6FFE1CF27
:101E7000D9FFE6520001E751E85D39E0E72B040E97
:101E8000E76EE719E8AE02D0E73402D0E750E75D2D
:101E900001E3E76BDF6A0E0EDF5C26E2E7C0E9FFD5
:101EA000EA6AE9BEEA680E0EEA02F3CFEAFFE90247
:101EB000F3CFE9FFF450EA26980EE926000EEA2255
:101EC000DF500F01E924E96E000EEA20EA6EEF50C0
:101ED000E66EDF50EA6A600FE96E0F0EEA22E55205
:101EE000E750EF6EDF2AD7D76086000E01D0010ED3
:101EF000E552E552E7CFD9FF1200D9CFE6FFE1CF97
:101F0000D9FF020EE1260001E705E85D05E0030EBA
:101F1000E85D04E1E75102E1010E03D1030EE76E33
:101F2000E819E8AE02D0E73402D0E750E85D02E3FA
:101F3000DF6A02D0E829DF6EFC0EDB50080805E2FC
:101F4000080EF36EFC0EF3CFDBFFDF500E0DF3CF68
:101F5000E9FFF4CFEAFF980EE926000EEA22050E0B
:101F6000E926000EEA22FC0EDBCFEFFFD950F00F7E
:101F7000E96EFF0EDA20EA6E0E0EE926000EEA2266
:101F8000EF50020B45E1DF500E0DF3CFE9FFF4CF28
:101F9000EAFF980EE926000EEA22050EE926000E59
:101FA000EA22EF9C010EDB6AFC0EDB50F36E010EA1
:101FB000DBCFF4FFF350F45C3AE2D950F40F166E25
:101FC000FF0EDA20176E010EDB500F011624E96EAA
:101FD000000E1720EA6EEF50E66EDF500E0DF3CFC5
:101FE000E9FFF4CFEAFF980EE926000EEA22060E7A
:101FF000E926000EEA22010EDB50E924E96E000E0C
:10200000EA20EA6EE552E750EF6E010EDB2ACCD7EC
:10201000DF500E0DF3CFE9FFF4CFEAFF980EE9266B
:10202000000EEA22050EE926000EEA22EF8CF00EE1
:10203000DBCF14F0F10EDBCF15F0F20EDBCF16F094
:10204000F30EDBCF17F0050E1F0B07E0D890143608
:10205000153616361736E806F9E11450E66EDF50ED
:102060000E0DF3CFE9FFF4CFEAFF980EE926000E3C
:10207000EA22020EE926000EEA22E552E750EF6E50
:10208000F00EDBCF14F0F10EDBCF15F0F20EDBCF4C
:1020900016F0F30EDBCF17F0030ED890173216327E
:1020A00015321432E806F9E11450E66EDF500E0DD9
:1020B000F3CFE9FFF4CFEAFF980EE926000EEA22FB
:1020C000EE52E552E750EF6EDF500E0DF3CFE9FF11
:1020D000F4CFEAFF980EE926000EEA22020EE92666
:1020E000000EEA22EF96FD0EDB50030BE66EDF508A
:1020F0000E0DF3CFE9FFF4CFEAFF980EE926000EAC
:10210000EA22E552E750EF6EDFCFE8F0A3B402D049
:10211000A38406D0A3B602D0A38602D0A3A8A38826
:10212000000E146E020EE15C02E2E16AE552E16E1D
:102130001450E552E7CFD9FF12000001E551E65DEA
:1021400001E0010C000CD9CFE6FFE1CFD9FF110E61
:10215000E126030E0001E76EE519E8AE02D0E73490
:1021600002D0E750E55D03E30F0EDB6A05D0E529F9
:10217000E76E0F0EE7CFDBFFDB500E0DF3CFE9FF6D
:10218000F4CFEAFF600EE926000EEA22050EE926EA
:10219000000EEA22EF500F0BE76E0C0EE7CFDBFFCD
:1021A0000F0EDB500E0DF3CFE9FFF4CFEAFF600E08
:1021B000E926000EEA22EF50080B03E00E0EDB8248
:1021C00036D00E0EDB92100EDB6A0C0EDB50F36E77
:1021D000100EDBCFF4FFF350F45C29E20F0EDB505E
:1021E0000E0DF3CFE9FFF4CFEAFF600EE926000EF3
:1021F000EA22060EE926000EEA22100EDB500F013D
:10220000E924E96E000EEA20EA6EEF50E66ED9503E
:10221000040F146E100EDB501424E96E000EDA2049
:10222000EA6EE552E750EF6E100EDB2ACED7F00EC5
:102230006F146F6E0F0EDB500E0DF3CFE9FFF4CF6E
:10224000EAFF600EE926000EEA22EE52EF50146E0D
:10225000156A030ED89014361536E804FBE1000E1B
:1022600014C0DFFF010E15C0DBFF020EDB6A030E98
:10227000DB6A0F0EDB500E0DF3CFE9FFF4CFEAFF60
:10228000600EE926000EEA22020EE926000EEA227E
:10229000EF50E00BE838E840156A166A176AE85014
:1022A000DE121550DE121650DE121750DD12DD520E
:1022B000DD520E0EDB900F0EDBCFE5F0D9CFE9FF3C
:1022C000DACFEAFFEECF14F0EECF15F0EECF16F036
:1022D000EECF17F0EECF18F0EECF19F0EECF1AF0E8
:1022E000EECF1BF0EECF1CF0EECF1DF0EECF1EF0C8
:1022F000EECF1FF0EECF20F0EECF21F0EFCF22F0A7
:10230000D9CFE9FFDACFEAFFED50ED5022C0EDFF63
:1023100021C0EDFF20C0EDFF1FC0EDFF1EC0EDFF8F
:102320001DC0EDFF1CC0EDFF1BC0EDFF1AC0EDFF8F
:1023300019C0EDFF18C0EDFF17C0EDFF16C0EDFF8F
:1023400015C0EDFF14C0EFFF110EE15C02E2E16A7F
:10235000E552E16EE552E7CFD9FF1200D9CFE6FF93
:10236000E1CFD9FF1F0E6F14146EFE0EDB50E00B91
:1023700014106F6EE00E6E14146EFE0EDB50E00B48
:0C238000145CF8E1E552E7CFD9FF120031
:04238C00FF0EE3CF8E
:10239000EAFFE552FF0EE3CFE9FFE552E66AD9CF47
:1023A000E6FFDACFE6FFFD0EE124D96EFF0EE22054
:1023B000DA6EE66AE66A200EEF5C06E0090EEF5C74
:1023C00003E0EF6603D02CD0EE50F5D72D0EEF5C76
:1023D00003E1FF0EE32A03D02B0EEF5C01E1EE5088
:1023E0002F0EEF6416D03A0EEF6013D0D890FB0E8C
:1023F000E336FE0EDFCFE3FFD890FB0EE336D89036
:10240000FB0EE336FE0EE350DF26300EEE5CDF26D9
:10241000E7D7FF0EE3CFE8FFE85202E0DF1EDF2A36
:10242000E552E552FF0EE3CFDAFFE552FF0EE3CFB0
:10243000D9FFE552FF0EE3CFE8FFE6521200FF0E90
:10244000E3CFEAFFE552FF0EE3CFE9FFE552E66A8C
:10245000E66AD9CFE6FFDACFE6FFFC0EE124D96EBB
:10246000FF0EE220DA6EE66AE66AE66A200EEF5CAC
:1024700006E0090EEF5C03E0EF6603D03FD0EE50BC
:10248000F5D72D0EEF5C03E1FF0EE32A03D02B0EF0
:10249000EF5C01E1EE502F0EEF6424D03A0EEF60B6
:1024A00021D0D890F90EE336FA0EE336FD0EDECFDA
:1024B000E3FFFE0EDDCFE3FFD890F90EE336FA0E10
:1024C000E336D890F90EE336FA0EE336FD0EE3500C
:1024D000DE26FE0EE350DD22300EEE5CDE26000E20
:1024E000DD22D9D7FF0EE3CFE8FFE85207E0F90E6F
:1024F000E31EE32AFA0ED8B4E306E31EE552E552E2
:10250000E552FF0EE3CFDAFFE552FF0EE3CFD9FF2E
:10251000E552E1CFE9FFE2CFEAFFED52ED52EECF17
:10252000F3FFEFCFF4FF1200D9CFE6FFDACFE6FFDB
:10253000FB0EE3CFD9FFFC0EE3CFDAFFFD0EE35233
:1025400005E72D0EDE6EFD0EE31EE32AE652E6528F
:10255000FE0EE124E76EFF0EE220E46EE652F90E75
:10256000E3CFE6FFF2EC12F0FB0EE124E96EFF0E82
:10257000E220EA6EE2EC12F004E1DFEC12F003E19B
:1025800004D0EDEC12F0E8EC12F0EDEC12F0DE6AA3
:10259000FB0EE126FF0EE222FF0EE3CFDAFFE5524B
:1025A000FF0EE3CFD9FFE552FD0EE124E96EFF0EE9
:1025B000E220EA6EEECFF3FFEFCFF4FF1200EF3828
:1025C0000F0B1200EF500F0B02E1EE52D8841200F5
:1025D000EF380F0B300FDE6E1200EE500F0B300F86
:1025E000DE6E1200FD0EE3CFE9FFFE0EE3CFEAFF41
:1025F000080EE66EEE6AEF6AD890FE0EE336ED3610
:10260000EF36FF0EE30606E00CEC13F0EE520CEC96
:1026100013F0F3D7E56E1200030EEF24E8B6EF6E69
:10262000300EEF24E8BEEF6E000CD9CFE6FFDACF14
:10263000E6FFFA0EE3CFD9FFFB0EE3CFDAFFFD0E84
:10264000E35209E72D0EDE6EFC0EE31EE32AFD0EBB
:10265000D8B4E306E31EE652E652E652FD0EE1244C
:10266000E76EFF0EE220E46EE652F70EE3CFE6FFE0
:10267000F70EE3CFE6FF85EC13F0F90EE124E96EE7
:10268000FF0EE220EA6E75EC13F00AE172EC13F033
:1026900009E175EC13F008E172EC13F007E108D0E2
:1026A00080EC13F07BEC13F080EC13F07BEC13F078
:1026B00080EC13F0DE6AF90EE126FF0EE222FF0E37
:1026C000E3CFDAFFE552FF0EE3CFD9FFE552FC0E70
:1026D000E124E96EFF0EE220EA6EEECFF3FFEFCFCA
:1026E000F4FF1200EF380F0B1200EF500F0B02E156
:1026F000EE52D8841200EF380F0B300FDE6E12004E
:10270000EE500F0B300FDE6E1200FC0EE3CFE9FF30
:10271000FD0EE3CFEAFF100EE66EEE6AEE6AEF6A98
:10272000D890FD0EE336FE0EE336ED36ED36EF368D
:10273000FF0EE30609E0A6EC13F0EE52A6EC13F050
:10274000EE52A6EC13F0EDD7E56E1200030EEF2467
:0E275000E8B6EF6E300EEF24E8BEEF6E000C20
:02275E00948263
:10276000E9C0E6FFA0EC18F0E5529490E9C0E6FF5E
:10277000A0EC18F0E552120094929480E9C0E6FFB4
:10278000A0EC18F0E5529482E9C0E6FFA0EC18F046
:10279000E5529490E9C0E6FFA0EC18F0E552120073
:1027A00094929490E9C0E6FFA0EC18F0E552948270
:1027B000E9C0E6FFA0EC18F0E5529480E9C0E6FF1E
:1027C000A0EC18F0E5521200D9CFE6FFE1CFD9FF17
:1027D000E652DF6A080EDF5C1BE2FE0EDBAE03D0C2
:1027E0009492948002D094929490E9C0E6FFA0EC79
:1027F00018F0E5529482E9C0E6FFA0EC18F0E5522B
:10280000FE0EDB50020DFE0EF3CFDBFFDF2AE2D718
:10281000000EE552E552E7CFD9FF1200D9CFE6FF0F
:10282000E1CFD9FF020EE126E9C0E6FFA0EC18F0E7
:10283000E552010EDB6A080EF36E010EDBCFF4FFEA
:10284000F350F45C16E294929480E9C0E6FFA0ECA9
:1028500018F0E5529482E9C0E6FFA0EC18F0E552CA
:10286000DF9EDF4682A002D0000EDF80010EDB2A51
:10287000E2D7DF50146E020EE15C02E2E16AE5523B
:10288000E16E1450E552E7CFD9FF12009492948084
:10289000E9C0E6FFA0EC18F0E5529482E9C0E6FF3B
:1028A000A0EC18F0E55282B0010C000C94929490C8
:1028B000E9C0E6FFA0EC18F0E5529482E9C0E6FF1B
:1028C000A0EC18F0E552120094929480E9C0E6FF63
:1028D000A0EC18F0E5529482E9C0E6FFA0EC18F0F5
:1028E000E5521200D9CFE6FFE1CFD9FFE65237DF3C
:1028F000FE0EDBCFE6FF68DFE552C8DFDF6EFD0EC0
:10290000DBCFE6FF61DFE552C1DFDF6EFC0EDBCF20
:10291000E6FF5ADFE552BADFDF6E42DFE552E552ED
:10292000E7CFD9FF1200D9CFE6FFE1CFD9FF020EE2
:10293000E12615DFFE0EDBCFE6FF46DFE552A6DF20
:10294000E76E010EE7CFDBFFFD0EDBCFE6FF3CDFDE
:10295000E5529CDFE76E010EE7CFDBFF0DDFFE0ED9
:10296000DB500109E66E30DFE55290DFE76E010EC5
:10297000E7CFDBFF53DFDF6EA7DF12DFDF50146E20
:10298000020EE15C02E2E16AE552E16E1450E552AA
:10299000E7CFD9FF1200D9CFE6FFE1CFD9FF030E71
:1029A000E126DDDEFE0EDBCFE6FF0EDFE5526EDF59
:1029B000E76E020EE7CFDBFFFD0EDBCFE6FF04DFA5
:1029C000E55264DFE76E020EE7CFDBFFD5DEFE0ED9
:1029D000DB500109E66EF8DEE55258DFE76E020EC5
:1029E000E7CFDBFF1BDFE76E010EE7CFDBFF5EDF2C
:1029F00015DFDF6E69DFD4DEDECF14F0DDCF15F03A
:102A000014C0F3FF15C0F4FF030EE15C02E2E16ABB
:0C2A1000E552E16EE552E7CFD9FF12005D
:042A1C00D9CFE6FF29
:102A2000E1CFD9FF040EE12601D079D0FB0EDBCF38
:102A300014F0FC0EDBCF15F0FD0EDBCF16F0FE0E12
:102A4000DBCF17F0280E0B6E0C6A0D6A0E6A14C0ED
:102A500006F015C007F016C008F017C009F0D5EC55
:102A600017F002C014F003C015F004C016F005C042
:102A700017F014C0DFFF010E15C0DBFF020E16C0F9
:102A8000DBFF030E17C0DBFFD9CFE9FFDACFEAFF88
:102A9000AF0EEE5E000EEE5A000EEE5A000EEE5A2B
:102AA000DECF07F0DECF08F0DECF09F0DDCF0AF091
:102AB000DD52DD520A34000E0A1809E6D8802D0EC8
:102AC0000754000E0854000E0954000E0A5401E386
:102AD00026D0DECF07F0DECF08F0DECF09F0DDCF65
:102AE0000AF0DD52DD520A34000E0A1809E6D880D9
:102AF000000E0754000E0854000E0954000E0A542C
:102B00000EE20000D9CFE9FFDACFEAFF2A0EEE5E2F
:102B1000000EEE5A000EEE5A000EEE5ADAD7040EF0
:102B2000E15C02E2E16AE552E16EE552E7CFD9FFEE
:102B30001200D9CFE6FFE1CFD9FF040EE126FD0E4A
:102B4000DBCF14F0FE0EDBCF15F0166A176AA00E6D
:102B50000B6E0F0E0C6E0D6A0E6A14C006F015C0D7
:102B600007F016C008F017C009F0D5EC17F002C046
:102B700014F003C015F004C016F005C017F014C01F
:102B8000DFFF010E15C0DBFF020E16C0DBFF030ED8
:102B900017C0DBFFD9CFE9FFDACFEAFFAA0EEE5E5E
:102BA000000EEE5A000EEE5A000EEE5ADECF07F07F
:102BB000DECF08F0DECF09F0DDCF0AF0DD52DD52C6
:102BC0000A34000E0A1809E6D880C30E0754000E16
:102BD0000854000E0954000E0A5402E327D026D0F0
:102BE000DECF07F0DECF08F0DECF09F0DDCF0AF050
:102BF000DD52DD520A34000E0A1809E6D880000EB4
:102C00000754000E0854000E0954000E0A540EE238
:102C10000000D9CFE9FFDACFEAFF270EEE5E000E03
:102C2000EE5A000EEE5A000EEE5ADAD7040EE15CB0
:102C300002E2E16AE552E16EE552E7CFD9FF120008
:102C4000948E949C240EAC6E900EAB6E400EB86EBB
:102C5000670EAF6E1200D9CFE6FFE1CFD9FFE65283
:102C6000FD0EDBCFF6FFDB2AFE0EDBCFF7FF01E325
:102C7000DB2A0800F550DF6EDF5005E0DFCFE6FF0E
:102C800023D8E552EDD7E552E552E7CFD9FF120040
:102C9000D9CFE6FFE1CFD9FFE652FD0EDBCFE9FF4A
:102CA000DB2AFE0EDBCFEAFF01E3DB2AEFCFDFFFFB
:102CB000DF5005E0DFCFE6FF07D8E552EED7E5525B
:102CC000E552E7CFD9FF1200D9CFE6FFE1CFD9FF18
:102CD000ACA2FED783888386FE0EDB50AD6EACA21D
:102CE000FED783968398E552E7CFD9FF1200ABA2B7
:102CF00002D0AB98AB88AE501200D9CFE6FFE1CF3F
:102D0000D9FFE652FE0EDB50DF6EFE0EDB380F0BF6
:102D10000F0BE76EFE0EE7CFDBFFDB50F76A680FA5
:102D2000F66E310EF7220800F550E66ECDDFE55263
:102D30000F0EDF14E76EFE0EE7CFDBFFDB50F76A06
:102D4000680FF66E310EF7220800F550E66EBCDF14
:102D5000E552E552E552E7CFD9FF1200D9CFE6FFA1
:102D6000E1CFD9FF640EF36EFE0EDBCFF4FFF3501C
:102D7000F45C13E3640E146E0E6EFE0EDBCF09F0EE
:102D800092EC18F00950F76A680FF66E310EF722D0
:102D90000800F550E66E98DFE5520A0EF36EFE0E5F
:102DA000DBCFF4FFF350F45C1CE3640E156E0E6E83
:102DB000FE0EDBCF09F092EC18F005C014F00A0EFD
:102DC000166E0E6E05C009F092EC18F00950F76A05
:102DD000680FF66E310EF7220800F550E66E74DFCC
:102DE000E5520A0E146E0E6EFE0EDBCF09F092EC69
:102DF00018F00550F76A680FF66E310EF7220800DA
:102E0000F550E66E61DFE552E552E7CFD9FF1200DB
:102E10003A002020002E000D0A203230000D0A5208
:102E2000583A20002F722F6E52466A6F696E3A2010
:102E3000000D0A52554E000D0A486962E173207078
:102E40006172616DE97465722100202C20706861E7
:102E500073653A2000202C207A65726F20657272AB
:102E60002E3A2000202C207265712E20706F732E58
:102E70003A2000202C206163742E20706F732E3A4C
:102E800020000D0A737A656C657020000D0A0A0037
:102E90000D0A20646966663A20000D0A206E656D91
:102EA0002074616C616C6F6D2061206C696D697458
:102EB0006574000D0A207A65726F206F6B2C2000FC
:102EC0000D0A206E656D206AF66E206C65206C69B7
:102ED0006D697472F66C2E2E2E000D0A6C696D6988
:102EE00074656E2076616E000D0A7A65726F2072CD
:102EF000756E2C206D6F746F723A2000737A656C5A
:0B2F00006570207465737A740D0A0080
:012F0B003293
:042F0C001E0EF66E31
:102F1000000EF76E000EF86E01010900F550F96F12
:102F20000900F550FA6F03E1F96701D03DD00900BF
:102F3000F550F46F0900F550F56F0900F550F66F84
:102F400009000900F550E96E0900F550EA6E090024
:102F500009000900F550F76F0900F550F86F0900F6
:102F60000900F6CFFBF1F7CFFCF1F8CFFDF1F4C18A
:102F7000F6FFF5C1F7FFF6C1F8FF0101F75302E1D3
:102F8000F85307E00900F550EE6EF707F8E2F8078E
:102F9000F9D7FBC1F6FFFCC1F7FFFDC1F8FF010146
:0A2FA000F907000EFA5BBFD712001C
:062FAA0006500B02F3CFFC
:102FB00002F0F4CF03F00C02F3500326000EF420CD
:102FC000046E06500D02F3500426000EF420056E28
:102FD00006500E02F350052607500B02F35003264D
:102FE000F4500422000E052207500C02F350042670
:102FF000F450052207500D02F350052608500B022D
:10300000F3500426F450052208500C02F350052614
:0A30100009500B02F35005261200D0
:06301A0008C012F008508E
:103020000D02F4CF07F0F3CF06F009500E02F4CFF3
:1030300009F0F3CF08F00D02F3500726F4500822F0
:10304000E86A092212500E02F3500726F4500822B3
:06305000E86A0922000CF1
:0A305600D9CFE6FFDACFE6FFE1CFA5
:10306000D9FFE2CFDAFFFD0EDB50FB0BCA6ECC6A54
:103070009E92FD0EDBAE02D09D8201D09D92CA844D
:0C308000E552E5CFDAFFE7CFD9FF1200E0
:04308C00FE0EE3CF82
:10309000E9FFFF0EE3CFEAFFE9CFF3FFEACFF4FF4A
:1030A000FB0EE35003E1FC0EE35009E0FB0EE306E8
:1030B00002E2FC0EE306FD0EE350EE6EF1D71200C5
:1030C0001030206040C0809090929496989A9C9E78
:1030D000E00D0A0A52656164790D0A000D0A0A457D
:0830E00072726F720D0A7D008F
:0830E800000EF36E00EE00F093
:1030F0000D0E01D81200EA6002D0EE6AFCD7F35040
:08310000E9601200EE6AFCD741
:083108001CEE00F02CEE00F0BB
:10311000F86A019C86EC17F003EC00F020EC03F059
:04312000FBD71200C7
:0C312400056A080EE76ED89009360536E3
:103130000E50055C02E3056E092AE72EF7D7120050
:10314000FF0EE350E84E1200000000D000D000D087
:06315000E82EFAD7120080
:0A3156000182819400B881CA2CC2E6
:08316000F7C423C65098278034
:083168003031323334353637C3
:08317000383941424344454651
:083178001F1C1F1E1F1E1F1F5C
:0D3180001E1F1E1F0000000000F4010000D3
:020000040030CA
:0100010002FC
:010002001EDF
:010003001EDE
:0100050000FA
:010006008178
:010008000FE8
:01000900C036
:01000A000FE6
:01000B00E014
:01000C000FE4
:01000D0040B2
:00000001FF
